{
  "contractName": "Payment",
  "abi": [
    {
      "inputs": [],
      "stateMutability": "nonpayable",
      "type": "constructor"
    },
    {
      "inputs": [],
      "name": "buyer",
      "outputs": [
        {
          "internalType": "address",
          "name": "",
          "type": "address"
        }
      ],
      "stateMutability": "view",
      "type": "function"
    },
    {
      "inputs": [
        {
          "internalType": "uint256",
          "name": "",
          "type": "uint256"
        }
      ],
      "name": "id_to_price",
      "outputs": [
        {
          "internalType": "uint256",
          "name": "",
          "type": "uint256"
        }
      ],
      "stateMutability": "view",
      "type": "function"
    },
    {
      "inputs": [],
      "name": "merchant",
      "outputs": [
        {
          "internalType": "address",
          "name": "",
          "type": "address"
        }
      ],
      "stateMutability": "view",
      "type": "function"
    },
    {
      "inputs": [],
      "name": "price",
      "outputs": [
        {
          "internalType": "uint256",
          "name": "",
          "type": "uint256"
        }
      ],
      "stateMutability": "view",
      "type": "function"
    },
    {
      "inputs": [],
      "name": "sales",
      "outputs": [
        {
          "internalType": "uint256",
          "name": "",
          "type": "uint256"
        }
      ],
      "stateMutability": "view",
      "type": "function"
    },
    {
      "inputs": [
        {
          "internalType": "uint256",
          "name": "_price",
          "type": "uint256"
        },
        {
          "internalType": "uint256",
          "name": "_id",
          "type": "uint256"
        }
      ],
      "name": "Createprice",
      "outputs": [],
      "stateMutability": "nonpayable",
      "type": "function"
    },
    {
      "inputs": [
        {
          "internalType": "uint256",
          "name": "_id",
          "type": "uint256"
        }
      ],
      "name": "pay",
      "outputs": [],
      "stateMutability": "payable",
      "type": "function"
    },
    {
      "inputs": [],
      "name": "Withdraw",
      "outputs": [],
      "stateMutability": "nonpayable",
      "type": "function"
    }
  ],
  "bytecode": "0x608060405234801561001057600080fd5b50336000806101000a81548173ffffffffffffffffffffffffffffffffffffffff021916908373ffffffffffffffffffffffffffffffffffffffff16021790555061071f806100606000396000f3fe60806040526004361061007b5760003560e01c8063a69d32b31161004e578063a69d32b314610118578063aace52fe14610155578063c290d69114610180578063ca9a20771461019c5761007b565b806357ea89b6146100805780637150d8ae14610097578063a035b1fe146100c2578063a5ff7651146100ed575b600080fd5b34801561008c57600080fd5b506100956101c5565b005b3480156100a357600080fd5b506100ac6102c4565b6040516100b9919061048e565b60405180910390f35b3480156100ce57600080fd5b506100d76102ea565b6040516100e491906104c2565b60405180910390f35b3480156100f957600080fd5b506101026102f0565b60405161010f919061048e565b60405180910390f35b34801561012457600080fd5b5061013f600480360381019061013a919061050e565b610314565b60405161014c91906104c2565b60405180910390f35b34801561016157600080fd5b5061016a61032c565b60405161017791906104c2565b60405180910390f35b61019a6004803603810190610195919061050e565b610332565b005b3480156101a857600080fd5b506101c360048036038101906101be919061053b565b6103a3565b005b60008054906101000a900473ffffffffffffffffffffffffffffffffffffffff1673ffffffffffffffffffffffffffffffffffffffff163373ffffffffffffffffffffffffffffffffffffffff1614610253576040517f08c379a000000000000000000000000000000000000000000000000000000000815260040161024a906105d8565b60405180910390fd5b60008054906101000a900473ffffffffffffffffffffffffffffffffffffffff1673ffffffffffffffffffffffffffffffffffffffff166108fc479081150290604051600060405180830381858888f193505050501580156102b9573d6000803e3d6000fd5b506000600381905550565b600260009054906101000a900473ffffffffffffffffffffffffffffffffffffffff1681565b60015481565b60008054906101000a900473ffffffffffffffffffffffffffffffffffffffff1681565b60046020528060005260406000206000915090505481565b60035481565b60046000828152602001908152602001600020543414610387576040517f08c379a000000000000000000000000000000000000000000000000000000000815260040161037e90610644565b60405180910390fd5b34600360008282546103999190610693565b9250508190555050565b60008054906101000a900473ffffffffffffffffffffffffffffffffffffffff1673ffffffffffffffffffffffffffffffffffffffff163373ffffffffffffffffffffffffffffffffffffffff1614610431576040517f08c379a0000000000000000000000000000000000000000000000000000000008152600401610428906105d8565b60405180910390fd5b8160046000838152602001908152602001600020819055505050565b600073ffffffffffffffffffffffffffffffffffffffff82169050919050565b60006104788261044d565b9050919050565b6104888161046d565b82525050565b60006020820190506104a3600083018461047f565b92915050565b6000819050919050565b6104bc816104a9565b82525050565b60006020820190506104d760008301846104b3565b92915050565b600080fd5b6104eb816104a9565b81146104f657600080fd5b50565b600081359050610508816104e2565b92915050565b600060208284031215610524576105236104dd565b5b6000610532848285016104f9565b91505092915050565b60008060408385031215610552576105516104dd565b5b6000610560858286016104f9565b9250506020610571858286016104f9565b9150509250929050565b600082825260208201905092915050565b7f596f7520617265206e6f7420746865206d65726368616e740000000000000000600082015250565b60006105c260188361057b565b91506105cd8261058c565b602082019050919050565b600060208201905081810360008301526105f1816105b5565b9050919050565b7f4e6f74207061696420656e6f7567680000000000000000000000000000000000600082015250565b600061062e600f8361057b565b9150610639826105f8565b602082019050919050565b6000602082019050818103600083015261065d81610621565b9050919050565b7f4e487b7100000000000000000000000000000000000000000000000000000000600052601160045260246000fd5b600061069e826104a9565b91506106a9836104a9565b9250827fffffffffffffffffffffffffffffffffffffffffffffffffffffffffffffffff038211156106de576106dd610664565b5b82820190509291505056fea2646970667358221220876bba0fc6d27a63c8df4ebad13925d9154f96f9822242967a1c8082d99a90b664736f6c634300080d0033",
  "immutableReferences": {},
  "source": "pragma solidity >=0.7.0 <0.9.0;\n\n// SPDX-License-Identifier: MIT\n\ncontract Payment{\n\n    address public  merchant;\n    uint256 public price;\n    address public buyer ;\n    uint public sales ;\n    mapping (uint=>uint) public id_to_price;\n    \n\n    \n    constructor(){\n        merchant = msg.sender;\n    }\n\n    modifier onlyMerchant() {\n        require(msg.sender== merchant,\"You are not the merchant\");\n        _;\n    }\n\n    function Createprice (uint _price, uint _id) public onlyMerchant  {\n        id_to_price[_id]= _price;\n    }\n\n    function pay(uint _id) public payable {\n        require(msg.value == id_to_price[_id]   , \"Not paid enough\" );\n        sales += msg.value ;\n    }\n\n    function Withdraw() public onlyMerchant{\n       payable (merchant).transfer(address(this).balance);\n       sales = 0 ;\n    }\n}\n\n",
  "sourcePath": "C:\\Users\\naman\\Documents\\Github\\Assignment\\contracts\\Payment.sol",
  "compiler": {
    "name": "solc",
    "version": "0.8.13+commit.abaa5c0e.Emscripten.clang"
  },
  "schemaVersion": "3.4.7",
  "updatedAt": "2022-04-14T09:52:09.557Z",
  "devdoc": {
    "kind": "dev",
    "methods": {},
    "version": 1
  },
  "userdoc": {
    "kind": "user",
    "methods": {},
    "version": 1
  }
}